{
  "address": "0x12A2d9330fd1fe20bffFB31b0710EeC31fC4E7a2",
  "abi": [
    {
      "anonymous": false,
      "inputs": [
        {
          "indexed": true,
          "internalType": "address",
          "name": "previousOwner",
          "type": "address"
        },
        {
          "indexed": true,
          "internalType": "address",
          "name": "newOwner",
          "type": "address"
        }
      ],
      "name": "OwnershipTransferred",
      "type": "event"
    },
    {
      "anonymous": false,
      "inputs": [
        {
          "indexed": true,
          "internalType": "address",
          "name": "token0",
          "type": "address"
        },
        {
          "indexed": true,
          "internalType": "address",
          "name": "token1",
          "type": "address"
        },
        {
          "indexed": false,
          "internalType": "address",
          "name": "pair",
          "type": "address"
        },
        {
          "indexed": false,
          "internalType": "uint256",
          "name": "",
          "type": "uint256"
        }
      ],
      "name": "PairCreated",
      "type": "event"
    },
    {
      "inputs": [],
      "name": "countPools",
      "outputs": [
        {
          "internalType": "uint256",
          "name": "",
          "type": "uint256"
        }
      ],
      "stateMutability": "view",
      "type": "function"
    },
    {
      "inputs": [
        {
          "internalType": "address",
          "name": "tokenA",
          "type": "address"
        },
        {
          "internalType": "address",
          "name": "tokenB",
          "type": "address"
        }
      ],
      "name": "createPair",
      "outputs": [
        {
          "internalType": "address",
          "name": "pair",
          "type": "address"
        }
      ],
      "stateMutability": "nonpayable",
      "type": "function"
    },
    {
      "inputs": [],
      "name": "owner",
      "outputs": [
        {
          "internalType": "address",
          "name": "",
          "type": "address"
        }
      ],
      "stateMutability": "view",
      "type": "function"
    },
    {
      "inputs": [
        {
          "internalType": "uint256",
          "name": "",
          "type": "uint256"
        }
      ],
      "name": "pools",
      "outputs": [
        {
          "internalType": "address",
          "name": "",
          "type": "address"
        }
      ],
      "stateMutability": "view",
      "type": "function"
    },
    {
      "inputs": [
        {
          "internalType": "address",
          "name": "",
          "type": "address"
        },
        {
          "internalType": "address",
          "name": "",
          "type": "address"
        }
      ],
      "name": "registry",
      "outputs": [
        {
          "internalType": "address",
          "name": "",
          "type": "address"
        }
      ],
      "stateMutability": "view",
      "type": "function"
    },
    {
      "inputs": [],
      "name": "renounceOwnership",
      "outputs": [],
      "stateMutability": "nonpayable",
      "type": "function"
    },
    {
      "inputs": [
        {
          "internalType": "address",
          "name": "newOwner",
          "type": "address"
        }
      ],
      "name": "transferOwnership",
      "outputs": [],
      "stateMutability": "nonpayable",
      "type": "function"
    }
  ],
  "transactionHash": "0x0d1304da1cef7b28ee195a2a619fdc5dd5dd8d92374a0806746bc38416946c19",
  "args": [],
  "solcInputHash": "6ecead8b75a0f26c239a88f292ec8cb4",
  "bytecode": "0x608060405234801561001057600080fd5b5061001a3361001f565b61006f565b600080546001600160a01b038381166001600160a01b0319831681178455604051919092169283917f8be0079c531659141344cd1fd0a4f28419497f9722a3daafe3b4186f6b6457e09190a35050565b6107298061007e6000396000f3fe608060405234801561001057600080fd5b506004361061007d5760003560e01c8063a5afd1b61161005b578063a5afd1b6146100c7578063ac4afa38146100fb578063c9c653961461010e578063f2fde38b1461012157600080fd5b80636fcdfed614610082578063715018a6146100985780638da5cb5b146100a2575b600080fd5b6002546040519081526020015b60405180910390f35b6100a0610134565b005b6000546001600160a01b03165b6040516001600160a01b03909116815260200161008f565b6100af6100d5366004610629565b60016020908152600092835260408084209091529082529020546001600160a01b031681565b6100af61010936600461065c565b61019f565b6100af61011c366004610629565b6101c9565b6100a061012f366004610675565b6104b7565b6000546001600160a01b031633146101935760405162461bcd60e51b815260206004820181905260248201527f4f776e61626c653a2063616c6c6572206973206e6f7420746865206f776e657260448201526064015b60405180910390fd5b61019d6000610599565b565b600281815481106101af57600080fd5b6000918252602090912001546001600160a01b0316905081565b6000816001600160a01b0316836001600160a01b0316141561022d5760405162461bcd60e51b815260206004820152601860248201527f4d75737420626520646966666572656e7420746f6b656e730000000000000000604482015260640161018a565b6001600160a01b0383166102835760405162461bcd60e51b815260206004820152600d60248201527f496e76616c696420546f6b656e00000000000000000000000000000000000000604482015260640161018a565b600080836001600160a01b0316856001600160a01b0316106102a65783856102a9565b84845b6001600160a01b038083166000908152600160209081526040808320848616845290915290205492945090925016156103245760405162461bcd60e51b815260206004820152601360248201527f506f6f6c20616c72656164792065786973747300000000000000000000000000604482015260640161018a565b60006040518060200161033690610601565b7fffffffffffffffffffffffffffffffffffffffffffffffffffffffffffffffe082820381018352601f9091011660408190527fffffffffffffffffffffffffffffffffffffffff000000000000000000000000606086811b8216602084015285901b166034820152909150600090604801604051602081830303815290604052805190602001209050808251602084016000f56001600160a01b0385811660008181526001602081815260408084208a871680865290835281852080547fffffffffffffffffffffffff0000000000000000000000000000000000000000908116988a1698891790915584845282862087875284528286208054821689179055600280549586018155958690527f405787fa12a823e0f2b7631cc41b3ba8828b3321ca811111fa75cd3aa3bb5ace90940180549094168717909355925483519586529085015293985090917f0d3648bd0f6ba80134a33ba9275ac585d9d315f0ad8355cddefde31afa28d0e9910160405180910390a35050505092915050565b6000546001600160a01b031633146105115760405162461bcd60e51b815260206004820181905260248201527f4f776e61626c653a2063616c6c6572206973206e6f7420746865206f776e6572604482015260640161018a565b6001600160a01b03811661058d5760405162461bcd60e51b815260206004820152602660248201527f4f776e61626c653a206e6577206f776e657220697320746865207a65726f206160448201527f6464726573730000000000000000000000000000000000000000000000000000606482015260840161018a565b61059681610599565b50565b600080546001600160a01b038381167fffffffffffffffffffffffff0000000000000000000000000000000000000000831681178455604051919092169283917f8be0079c531659141344cd1fd0a4f28419497f9722a3daafe3b4186f6b6457e09190a35050565b605c8061069883390190565b80356001600160a01b038116811461062457600080fd5b919050565b6000806040838503121561063c57600080fd5b6106458361060d565b91506106536020840161060d565b90509250929050565b60006020828403121561066e57600080fd5b5035919050565b60006020828403121561068757600080fd5b6106908261060d565b939250505056fe6080604052348015600f57600080fd5b50603f80601d6000396000f3fe6080604052600080fdfea26469706673582212208651536528b8fa442e605152a9c34b9f87aa66614633f685e50d6e8c87555cce64736f6c63430008090033a26469706673582212204df16d1309c6ca2d4a8e8d20385ca799cc11f1caf820f949396ed72414f536cb64736f6c63430008090033",
  "devdoc": {
    "kind": "dev",
    "methods": {
      "owner()": {
        "details": "Returns the address of the current owner."
      },
      "renounceOwnership()": {
        "details": "Leaves the contract without owner. It will not be possible to call `onlyOwner` functions anymore. Can only be called by the current owner. NOTE: Renouncing ownership will leave the contract without an owner, thereby removing any functionality that is only available to the owner."
      },
      "transferOwnership(address)": {
        "details": "Transfers ownership of the contract to a new account (`newOwner`). Can only be called by the current owner."
      }
    },
    "version": 1
  },
  "userdoc": {
    "kind": "user",
    "methods": {
      "countPools()": {
        "notice": "Return Total Number of Pools created"
      }
    },
    "version": 1
  },
  "storageLayout": {
    "storage": [
      {
        "astId": 7,
        "contract": "contracts/DEXRegistry.sol:DEXRegistry",
        "label": "_owner",
        "offset": 0,
        "slot": "0",
        "type": "t_address"
      },
      {
        "astId": 848,
        "contract": "contracts/DEXRegistry.sol:DEXRegistry",
        "label": "registry",
        "offset": 0,
        "slot": "1",
        "type": "t_mapping(t_address,t_mapping(t_address,t_address))"
      },
      {
        "astId": 851,
        "contract": "contracts/DEXRegistry.sol:DEXRegistry",
        "label": "pools",
        "offset": 0,
        "slot": "2",
        "type": "t_array(t_address)dyn_storage"
      }
    ],
    "types": {
      "t_address": {
        "encoding": "inplace",
        "label": "address",
        "numberOfBytes": "20"
      },
      "t_array(t_address)dyn_storage": {
        "base": "t_address",
        "encoding": "dynamic_array",
        "label": "address[]",
        "numberOfBytes": "32"
      },
      "t_mapping(t_address,t_address)": {
        "encoding": "mapping",
        "key": "t_address",
        "label": "mapping(address => address)",
        "numberOfBytes": "32",
        "value": "t_address"
      },
      "t_mapping(t_address,t_mapping(t_address,t_address))": {
        "encoding": "mapping",
        "key": "t_address",
        "label": "mapping(address => mapping(address => address))",
        "numberOfBytes": "32",
        "value": "t_mapping(t_address,t_address)"
      }
    }
  }
}